{
  "_format": "hh-sol-artifact-1",
  "contractName": "Dmap",
  "sourceName": "core/dmap.sol",
  "abi": [
    {
      "inputs": [],
      "name": "LOCK",
      "type": "error"
    },
    {
      "anonymous": true,
      "inputs": [
        {
          "indexed": true,
          "internalType": "address",
          "name": "zone",
          "type": "address"
        },
        {
          "indexed": true,
          "internalType": "bytes32",
          "name": "name",
          "type": "bytes32"
        },
        {
          "indexed": true,
          "internalType": "bytes32",
          "name": "meta",
          "type": "bytes32"
        },
        {
          "indexed": true,
          "internalType": "bytes32",
          "name": "data",
          "type": "bytes32"
        }
      ],
      "name": "Set",
      "type": "event"
    },
    {
      "inputs": [
        {
          "internalType": "bytes32",
          "name": "slot",
          "type": "bytes32"
        }
      ],
      "name": "get",
      "outputs": [
        {
          "internalType": "bytes32",
          "name": "meta",
          "type": "bytes32"
        },
        {
          "internalType": "bytes32",
          "name": "data",
          "type": "bytes32"
        }
      ],
      "stateMutability": "view",
      "type": "function"
    },
    {
      "inputs": [
        {
          "internalType": "bytes32",
          "name": "name",
          "type": "bytes32"
        },
        {
          "internalType": "bytes32",
          "name": "meta",
          "type": "bytes32"
        },
        {
          "internalType": "bytes32",
          "name": "data",
          "type": "bytes32"
        }
      ],
      "name": "set",
      "outputs": [],
      "stateMutability": "nonpayable",
      "type": "function"
    }
  ],
  "bytecode": "0x608060405234801561001057600080fd5b5060405161012e38038061012e83398101604081905261002f91610041565b60016000558060601b60015550610071565b60006020828403121561005357600080fd5b81516001600160a01b038116811461006a57600080fd5b9392505050565b60af8061007f6000396000f3fe608060405236602403602257600435546000526004356001015460205260406000f35b6004356024356044353360005282602052604060002081838533600080a481600182015580546001163660641817605857828155005b505050503660640360745763a4f0d7d060e01b60005260046000fd5b600080fdfea2646970667358221220ab38dae29c8e3a88667c53a1ce72fc8257ebbc5abf63ac31cdd6f933dbfb68ad64736f6c634300080d0033",
  "linkReferences": {},
  "deployedLinkReferences": {}
}