{
  "_format": "hh-sol-artifact-1",
  "contractName": "Dmap",
  "sourceName": "core/dmap.sol",
  "abi": [
    {
      "inputs": [],
      "name": "LOCK",
      "type": "error"
    },
    {
      "anonymous": true,
      "inputs": [
        {
          "indexed": true,
          "internalType": "address",
          "name": "zone",
          "type": "address"
        },
        {
          "indexed": true,
          "internalType": "bytes32",
          "name": "name",
          "type": "bytes32"
        },
        {
          "indexed": true,
          "internalType": "bytes32",
          "name": "meta",
          "type": "bytes32"
        },
        {
          "indexed": true,
          "internalType": "bytes32",
          "name": "data",
          "type": "bytes32"
        }
      ],
      "name": "Set",
      "type": "event"
    },
    {
      "inputs": [
        {
          "internalType": "bytes32",
          "name": "slot",
          "type": "bytes32"
        }
      ],
      "name": "get",
      "outputs": [
        {
          "internalType": "bytes32",
          "name": "meta",
          "type": "bytes32"
        },
        {
          "internalType": "bytes32",
          "name": "data",
          "type": "bytes32"
        }
      ],
      "stateMutability": "view",
      "type": "function"
    },
    {
      "inputs": [
        {
          "internalType": "bytes32",
          "name": "name",
          "type": "bytes32"
        },
        {
          "internalType": "bytes32",
          "name": "meta",
          "type": "bytes32"
        },
        {
          "internalType": "bytes32",
          "name": "data",
          "type": "bytes32"
        }
      ],
      "name": "set",
      "outputs": [],
      "stateMutability": "nonpayable",
      "type": "function"
    }
  ],
  "bytecode": "0x608060405234801561001057600080fd5b5060405161012638038061012683398101604081905261002f91610041565b60016000558060601b60015550610071565b60006020828403121561005357600080fd5b81516001600160a01b038116811461006a57600080fd5b9392505050565b60a78061007f6000396000f3fe608060405236602403602257600435805460005280600101546020525060406000f35b60043560243560443560003381528360205260408120828486338586a4826001820155805460011636606418176059578381558182f35b5036606403606d5763a4f0d7d08152600481fd5b8081fdfea2646970667358221220d717debab17c1270ea4190b055f6772b6401762d75c08716d45324a2ef93699064736f6c634300080d0033",
  "linkReferences": {},
  "deployedLinkReferences": {}
}