{
  "_format": "hh-sol-artifact-1",
  "contractName": "RootZone",
  "sourceName": "core/root.sol",
  "abi": [
    {
      "inputs": [
        {
          "internalType": "contract Dmap",
          "name": "d",
          "type": "address"
        }
      ],
      "stateMutability": "nonpayable",
      "type": "constructor"
    },
    {
      "inputs": [],
      "name": "ErrExpired",
      "type": "error"
    },
    {
      "inputs": [],
      "name": "ErrPayment",
      "type": "error"
    },
    {
      "inputs": [],
      "name": "ErrPending",
      "type": "error"
    },
    {
      "inputs": [],
      "name": "ErrReceipt",
      "type": "error"
    },
    {
      "anonymous": false,
      "inputs": [
        {
          "indexed": true,
          "internalType": "bytes32",
          "name": "name",
          "type": "bytes32"
        },
        {
          "indexed": true,
          "internalType": "address",
          "name": "zone",
          "type": "address"
        }
      ],
      "name": "Etch",
      "type": "event"
    },
    {
      "anonymous": false,
      "inputs": [
        {
          "indexed": true,
          "internalType": "bytes32",
          "name": "mark",
          "type": "bytes32"
        }
      ],
      "name": "Hark",
      "type": "event"
    },
    {
      "inputs": [],
      "name": "dmap",
      "outputs": [
        {
          "internalType": "contract Dmap",
          "name": "",
          "type": "address"
        }
      ],
      "stateMutability": "view",
      "type": "function"
    },
    {
      "inputs": [
        {
          "internalType": "bytes32",
          "name": "salt",
          "type": "bytes32"
        },
        {
          "internalType": "bytes32",
          "name": "name",
          "type": "bytes32"
        },
        {
          "internalType": "address",
          "name": "zone",
          "type": "address"
        }
      ],
      "name": "etch",
      "outputs": [],
      "stateMutability": "nonpayable",
      "type": "function"
    },
    {
      "inputs": [
        {
          "internalType": "bytes32",
          "name": "hash",
          "type": "bytes32"
        }
      ],
      "name": "hark",
      "outputs": [],
      "stateMutability": "payable",
      "type": "function"
    },
    {
      "inputs": [],
      "name": "last",
      "outputs": [
        {
          "internalType": "uint256",
          "name": "",
          "type": "uint256"
        }
      ],
      "stateMutability": "view",
      "type": "function"
    },
    {
      "inputs": [],
      "name": "mark",
      "outputs": [
        {
          "internalType": "bytes32",
          "name": "",
          "type": "bytes32"
        }
      ],
      "stateMutability": "view",
      "type": "function"
    }
  ],
  "bytecode": "0x60e06040526201b3f060a052600160c05234801561001c57600080fd5b506040516105e73803806105e783398101604081905261003b9161004c565b6001600160a01b031660805261007c565b60006020828403121561005e57600080fd5b81516001600160a01b038116811461007557600080fd5b9392505050565b60805160a05160c0516105366100b1600039600061034a0152600061012e01526000818160c5015261039c01526105366000f3fe60806040526004361061005a5760003560e01c80638c0d0c29116100435780638c0d0c291461009d57806396aab0db146100b357806398e9169a1461010c57600080fd5b806347799da81461005f57806367b3498214610088575b600080fd5b34801561006b57600080fd5b5061007560005481565b6040519081526020015b60405180910390f35b61009b610096366004610456565b61012c565b005b3480156100a957600080fd5b5061007560015481565b3480156100bf57600080fd5b506100e77f000000000000000000000000000000000000000000000000000000000000000081565b60405173ffffffffffffffffffffffffffffffffffffffff909116815260200161007f565b34801561011857600080fd5b5061009b61012736600461046f565b610295565b7f000000000000000000000000000000000000000000000000000000000000000060005461015a91906104c1565b421015610193576040517f9e55fd8400000000000000000000000000000000000000000000000000000000815260040160405180910390fd5b34670de0b6b3a7640000146101d4576040517f26a3532c00000000000000000000000000000000000000000000000000000000815260040160405180910390fd5b6040516000904190670de0b6b3a7640000908381818185875af1925050503d806000811461021e576040519150601f19603f3d011682016040523d82523d6000602084013e610223565b606091505b505090508061025e576040517f732c0a7a00000000000000000000000000000000000000000000000000000000815260040160405180910390fd5b426000908155600183905560405183917f43f1fa9f83167b5a648b9a97d860c6fa2b47b5f31daa0a4b0601aebd11545e3591a25050565b604080516020810185905290810183905273ffffffffffffffffffffffffffffffffffffffff82166060820152600090608001604051602081830303815290604052805190602001209050600154811461031b576040517f992d5df000000000000000000000000000000000000000000000000000000000815260040160405180910390fd5b6040517fbb40a4a9000000000000000000000000000000000000000000000000000000008152600481018490527f00000000000000000000000000000000000000000000000000000000000000006024820152606083901b7fffffffffffffffffffffffffffffffffffffffff0000000000000000000000001660448201527f000000000000000000000000000000000000000000000000000000000000000073ffffffffffffffffffffffffffffffffffffffff169063bb40a4a990606401600060405180830381600087803b1580156103f557600080fd5b505af1158015610409573d6000803e3d6000fd5b505060405173ffffffffffffffffffffffffffffffffffffffff851692508591507f43a0ea16bc4807289e2f2ed05c88e3b2f351cf8f6fda40ed68afed438c03a6b590600090a350505050565b60006020828403121561046857600080fd5b5035919050565b60008060006060848603121561048457600080fd5b8335925060208401359150604084013573ffffffffffffffffffffffffffffffffffffffff811681146104b657600080fd5b809150509250925092565b600082198211156104fb577f4e487b7100000000000000000000000000000000000000000000000000000000600052601160045260246000fd5b50019056fea26469706673582212201260bc2576068bd445acf714323f2875eb70c66b48fa66823ace063838285ad464736f6c634300080d0033",
  "linkReferences": {},
  "deployedLinkReferences": {}
}